{
  "contractName": "HRM",
  "abi": [
    {
      "constant": true,
      "inputs": [],
      "name": "getName",
      "outputs": [
        {
          "internalType": "string",
          "name": "",
          "type": "string"
        }
      ],
      "payable": false,
      "stateMutability": "view",
      "type": "function"
    },
    {
      "constant": true,
      "inputs": [],
      "name": "CheckIfDoctor",
      "outputs": [
        {
          "internalType": "bool",
          "name": "",
          "type": "bool"
        }
      ],
      "payable": false,
      "stateMutability": "view",
      "type": "function"
    },
    {
      "constant": true,
      "inputs": [],
      "name": "CheckIfPatient",
      "outputs": [
        {
          "internalType": "bool",
          "name": "",
          "type": "bool"
        }
      ],
      "payable": false,
      "stateMutability": "view",
      "type": "function"
    },
    {
      "constant": false,
      "inputs": [
        {
          "internalType": "address",
          "name": "doctorAddress",
          "type": "address"
        },
        {
          "internalType": "string",
          "name": "time",
          "type": "string"
        },
        {
          "internalType": "string",
          "name": "date",
          "type": "string"
        }
      ],
      "name": "BookAppointment",
      "outputs": [],
      "payable": false,
      "stateMutability": "nonpayable",
      "type": "function"
    },
    {
      "constant": true,
      "inputs": [],
      "name": "GetAllAppointments",
      "outputs": [
        {
          "components": [
            {
              "internalType": "uint256",
              "name": "_id",
              "type": "uint256"
            },
            {
              "internalType": "string",
              "name": "_time",
              "type": "string"
            },
            {
              "internalType": "string",
              "name": "_date",
              "type": "string"
            },
            {
              "components": [
                {
                  "internalType": "uint256",
                  "name": "_id",
                  "type": "uint256"
                },
                {
                  "internalType": "address",
                  "name": "_address",
                  "type": "address"
                },
                {
                  "internalType": "string",
                  "name": "_name",
                  "type": "string"
                },
                {
                  "internalType": "string",
                  "name": "_DOB",
                  "type": "string"
                },
                {
                  "internalType": "string",
                  "name": "_gender",
                  "type": "string"
                },
                {
                  "internalType": "string",
                  "name": "_email",
                  "type": "string"
                }
              ],
              "internalType": "struct HRM.Patient",
              "name": "_patient",
              "type": "tuple"
            }
          ],
          "internalType": "struct HRM.Appointment[]",
          "name": "",
          "type": "tuple[]"
        }
      ],
      "payable": false,
      "stateMutability": "view",
      "type": "function"
    },
    {
      "constant": false,
      "inputs": [
        {
          "internalType": "string",
          "name": "name",
          "type": "string"
        },
        {
          "internalType": "string",
          "name": "CID",
          "type": "string"
        }
      ],
      "name": "UploadDocument",
      "outputs": [],
      "payable": false,
      "stateMutability": "nonpayable",
      "type": "function"
    },
    {
      "constant": true,
      "inputs": [
        {
          "internalType": "address",
          "name": "patientAddress",
          "type": "address"
        }
      ],
      "name": "GetAllDocuments",
      "outputs": [
        {
          "components": [
            {
              "internalType": "string",
              "name": "_name",
              "type": "string"
            },
            {
              "internalType": "string",
              "name": "_CID",
              "type": "string"
            }
          ],
          "internalType": "struct HRM.Document[]",
          "name": "",
          "type": "tuple[]"
        }
      ],
      "payable": false,
      "stateMutability": "view",
      "type": "function"
    },
    {
      "constant": false,
      "inputs": [
        {
          "internalType": "string",
          "name": "name",
          "type": "string"
        },
        {
          "internalType": "string",
          "name": "speciality",
          "type": "string"
        },
        {
          "internalType": "string",
          "name": "email",
          "type": "string"
        }
      ],
      "name": "RegisterAsDoctor",
      "outputs": [],
      "payable": false,
      "stateMutability": "nonpayable",
      "type": "function"
    },
    {
      "constant": false,
      "inputs": [
        {
          "internalType": "string",
          "name": "name",
          "type": "string"
        },
        {
          "internalType": "string",
          "name": "DOB",
          "type": "string"
        },
        {
          "internalType": "string",
          "name": "gender",
          "type": "string"
        },
        {
          "internalType": "string",
          "name": "email",
          "type": "string"
        }
      ],
      "name": "RegisterAsPatient",
      "outputs": [],
      "payable": false,
      "stateMutability": "nonpayable",
      "type": "function"
    },
    {
      "constant": true,
      "inputs": [],
      "name": "GetAllDoctors",
      "outputs": [
        {
          "components": [
            {
              "internalType": "uint256",
              "name": "_id",
              "type": "uint256"
            },
            {
              "internalType": "address",
              "name": "_address",
              "type": "address"
            },
            {
              "internalType": "string",
              "name": "_name",
              "type": "string"
            },
            {
              "internalType": "string",
              "name": "_speciality",
              "type": "string"
            },
            {
              "internalType": "string",
              "name": "_email",
              "type": "string"
            }
          ],
          "internalType": "struct HRM.Doctor[]",
          "name": "",
          "type": "tuple[]"
        }
      ],
      "payable": false,
      "stateMutability": "view",
      "type": "function"
    }
  ],
  "bytecode": "0x600080805560015560c0604052600560808190526454454a415360d81b60a090815262000030916007919062000045565b503480156200003e57600080fd5b50620000ea565b828054600181600116156101000203166002900490600052602060002090601f016020900481019282601f106200008857805160ff1916838001178555620000b8565b82800160010185558215620000b8579182015b82811115620000b85782518255916020019190600101906200009b565b50620000c6929150620000ca565b5090565b620000e791905b80821115620000c65760008155600101620000d1565b90565b611bbc80620000fa6000396000f3fe608060405234801561001057600080fd5b506004361061009e5760003560e01c8063c1e2a58011610066578063c1e2a58014610108578063c41cc1481461011b578063cfce08271461012e578063ede75c7514610141578063f6894bcb146101615761009e565b806317d7de7c146100a35780632683d769146100c15780634675c9c8146100d6578063484073e7146100eb5780636c18f54e14610100575b600080fd5b6100ab610176565b6040516100b89190611a5d565b60405180910390f35b6100d46100cf366004611512565b61020d565b005b6100de610419565b6040516100b89190611a4f565b6100f3610449565b6040516100b89190611a1c565b6100de6108a7565b6100d46101163660046114a9565b6108cf565b6100d461012936600461142c565b61094d565b6100d461013c36600461154a565b610d53565b61015461014f366004611406565b610e7e565b6040516100b89190611a3e565b61016961101f565b6040516100b89190611a2d565b60078054604080516020601f60026000196101006001881615020190951694909404938401819004810282018101909252828152606093909290918301828280156102025780601f106101d757610100808354040283529160200191610202565b820191906000526020600020905b8154815290600101906020018083116101e557829003601f168201915b505050505090505b90565b336000908152600360205260409020600101546001600160a01b03161561024f5760405162461bcd60e51b815260040161024690611a8e565b60405180910390fd5b61025761124b565b506040805160a081018252600080548252336020808401828152848601898152606086018990526080860188905292845260038252949092208351815593516001850180546001600160a01b0319166001600160a01b039092169190911790555180519293849390926102d1926002850192910190611283565b50606082015180516102ed916003840191602090910190611283565b5060808201518051610309916004840191602090910190611283565b50506002805460018101808355600092909252835160059091027f405787fa12a823e0f2b7631cc41b3ba8828b3321ca811111fa75cd3aa3bb5ace81019182556020808601517f405787fa12a823e0f2b7631cc41b3ba8828b3321ca811111fa75cd3aa3bb5acf830180546001600160a01b039092166001600160a01b03199092169190911790556040860151805194955086946103ce937f405787fa12a823e0f2b7631cc41b3ba8828b3321ca811111fa75cd3aa3bb5ad001929190910190611283565b50606082015180516103ea916003840191602090910190611283565b5060808201518051610406916004840191602090910190611283565b5050600080546001019055505050505050565b336000908152600460205260408120600101546001600160a01b03166104415750600061020a565b50600161020a565b336000908152600360205260409020600101546060906001600160a01b03166104845760405162461bcd60e51b815260040161024690611a7e565b33600090815260066020908152604080832080548251818502810185019093528083529193909284015b8282101561089e578382906000526020600020906009020160405180608001604052908160008201548152602001600182018054600181600116156101000203166002900480601f0160208091040260200160405190810160405280929190818152602001828054600181600116156101000203166002900480156105745780601f1061054957610100808354040283529160200191610574565b820191906000526020600020905b81548152906001019060200180831161055757829003601f168201915b5050509183525050600282810180546040805160206001841615610100026000190190931694909404601f810183900483028501830190915280845293810193908301828280156106065780601f106105db57610100808354040283529160200191610606565b820191906000526020600020905b8154815290600101906020018083116105e957829003601f168201915b50505091835250506040805160c081018252600384018054825260048501546001600160a01b03166020838101919091526005860180548551601f600260001960018516156101000201909316929092049182018490048402810184018752818152968301969495939493860193928301828280156106c65780601f1061069b576101008083540402835291602001916106c6565b820191906000526020600020905b8154815290600101906020018083116106a957829003601f168201915b505050918352505060038201805460408051602060026001851615610100026000190190941693909304601f810184900484028201840190925281815293820193929183018282801561075a5780601f1061072f5761010080835404028352916020019161075a565b820191906000526020600020905b81548152906001019060200180831161073d57829003601f168201915b505050918352505060048201805460408051602060026001851615610100026000190190941693909304601f81018490048402820184019092528181529382019392918301828280156107ee5780601f106107c3576101008083540402835291602001916107ee565b820191906000526020600020905b8154815290600101906020018083116107d157829003601f168201915b505050918352505060058201805460408051602060026001851615610100026000190190941693909304601f81018490048402820184019092528181529382019392918301828280156108825780601f1061085757610100808354040283529160200191610882565b820191906000526020600020905b81548152906001019060200180831161086557829003601f168201915b50505050508152505081525050815260200190600101906104ae565b50505050905090565b336000908152600360205260408120600101546001600160a01b03166104415750600061020a565b6108d7611301565b50604080518082018252838152602080820184905233600090815260058252928320805460018101808355918552938290208351805194959294869460029094029092019261092b92849290910190611283565b5060208281015180516109449260018501920190611283565b50505050505050565b61095561131b565b604080516080810182526001600160a01b038616600090815260066020529190912054819061098557600061099f565b6001600160a01b0386166000908152600660205260409020545b81526020808201869052604080830186905233600090815260048352819020815160c081018352815481526001808301546001600160a01b0316828601526002808401805486516101009482161594909402600019011691909104601f810187900487028301870186528083526060909701969295939486019391929091830182828015610a6e5780601f10610a4357610100808354040283529160200191610a6e565b820191906000526020600020905b815481529060010190602001808311610a5157829003601f168201915b505050918352505060038201805460408051602060026001851615610100026000190190941693909304601f8101849004840282018401909252818152938201939291830182828015610b025780601f10610ad757610100808354040283529160200191610b02565b820191906000526020600020905b815481529060010190602001808311610ae557829003601f168201915b505050918352505060048201805460408051602060026001851615610100026000190190941693909304601f8101849004840282018401909252818152938201939291830182828015610b965780601f10610b6b57610100808354040283529160200191610b96565b820191906000526020600020905b815481529060010190602001808311610b7957829003601f168201915b505050918352505060058201805460408051602060026001851615610100026000190190941693909304601f8101849004840282018401909252818152938201939291830182828015610c2a5780601f10610bff57610100808354040283529160200191610c2a565b820191906000526020600020905b815481529060010190602001808311610c0d57829003601f168201915b5050509190925250505090526001600160a01b0385166000908152600660209081526040822080546001818101808455928552938390208551600990920201908155828501518051959650919486949193610c8a93928501920190611283565b5060408201518051610ca6916002840191602090910190611283565b5060608201518051600383019081556020808301516004850180546001600160a01b0319166001600160a01b0390921691909117905560408301518051610cf39260058701920190611283565b5060608201518051610d0f916003840191602090910190611283565b5060808201518051610d2b916004840191602090910190611283565b5060a08201518051610d47916005840191602090910190611283565b50505050505050505050565b336000908152600460205260409020600101546001600160a01b031615610d8c5760405162461bcd60e51b815260040161024690611a6e565b610d94611348565b506040805160c0810182526001805482523360208084018281528486018a8152606086018a90526080860189905260a086018890526000938452600483529590922084518155915192820180546001600160a01b0319166001600160a01b039094169390931790925592518051929384939092610e18926002850192910190611283565b5060608201518051610e34916003840191602090910190611283565b5060808201518051610e50916004840191602090910190611283565b5060a08201518051610e6c916005840191602090910190611283565b50506001805481019055505050505050565b6001600160a01b0381166000908152600560209081526040808320805482518185028101850190935280835260609492939192909184015b828210156110145760008481526020908190206040805160028681029093018054600181161561010002600019011693909304601f810185900490940281016060908101835291810184815290938492849190840182828015610f5a5780601f10610f2f57610100808354040283529160200191610f5a565b820191906000526020600020905b815481529060010190602001808311610f3d57829003601f168201915b50505050508152602001600182018054600181600116156101000203166002900480601f016020809104026020016040519081016040528092919081815260200182805460018160011615610100020316600290048015610ffc5780601f10610fd157610100808354040283529160200191610ffc565b820191906000526020600020905b815481529060010190602001808311610fdf57829003601f168201915b50505050508152505081526020019060010190610eb6565b505050509050919050565b60606002805480602002602001604051908101604052809291908181526020016000905b8282101561089e5760008481526020908190206040805160a08101825260058602909201805483526001808201546001600160a01b0316848601526002808301805485516101009482161594909402600019011691909104601f810187900487028301870185528083529495929493860193919290919083018282801561110b5780601f106110e05761010080835404028352916020019161110b565b820191906000526020600020905b8154815290600101906020018083116110ee57829003601f168201915b505050918352505060038201805460408051602060026001851615610100026000190190941693909304601f810184900484028201840190925281815293820193929183018282801561119f5780601f106111745761010080835404028352916020019161119f565b820191906000526020600020905b81548152906001019060200180831161118257829003601f168201915b505050918352505060048201805460408051602060026001851615610100026000190190941693909304601f81018490048402820184019092528181529382019392918301828280156112335780601f1061120857610100808354040283529160200191611233565b820191906000526020600020905b81548152906001019060200180831161121657829003601f168201915b50505050508152505081526020019060010190611043565b6040518060a001604052806000815260200160006001600160a01b031681526020016060815260200160608152602001606081525090565b828054600181600116156101000203166002900490600052602060002090601f016020900481019282601f106112c457805160ff19168380011785556112f1565b828001600101855582156112f1579182015b828111156112f15782518255916020019190600101906112d6565b506112fd929150611387565b5090565b604051806040016040528060608152602001606081525090565b6040518060800160405280600081526020016060815260200160608152602001611343611348565b905290565b6040518060c001604052806000815260200160006001600160a01b03168152602001606081526020016060815260200160608152602001606081525090565b61020a91905b808211156112fd576000815560010161138d565b80356113ac81611b62565b92915050565b600082601f8301126113c357600080fd5b81356113d66113d182611ac5565b611a9e565b915080825260208301602083018583830111156113f257600080fd5b6113fd838284611b1c565b50505092915050565b60006020828403121561141857600080fd5b600061142484846113a1565b949350505050565b60008060006060848603121561144157600080fd5b600061144d86866113a1565b935050602084013567ffffffffffffffff81111561146a57600080fd5b611476868287016113b2565b925050604084013567ffffffffffffffff81111561149357600080fd5b61149f868287016113b2565b9150509250925092565b600080604083850312156114bc57600080fd5b823567ffffffffffffffff8111156114d357600080fd5b6114df858286016113b2565b925050602083013567ffffffffffffffff8111156114fc57600080fd5b611508858286016113b2565b9150509250929050565b60008060006060848603121561152757600080fd5b833567ffffffffffffffff81111561153e57600080fd5b61144d868287016113b2565b6000806000806080858703121561156057600080fd5b843567ffffffffffffffff81111561157757600080fd5b611583878288016113b2565b945050602085013567ffffffffffffffff8111156115a057600080fd5b6115ac878288016113b2565b935050604085013567ffffffffffffffff8111156115c957600080fd5b6115d5878288016113b2565b925050606085013567ffffffffffffffff8111156115f257600080fd5b6115fe878288016113b2565b91505092959194509250565b60006116168383611878565b9392505050565b600061161683836118e1565b60006116168383611954565b61163e81611b00565b82525050565b600061164f82611af3565b6116598185611af7565b93508360208202850161166b85611aed565b8060005b858110156116a55784840389528151611688858261160a565b945061169383611aed565b60209a909a019992505060010161166f565b5091979650505050505050565b60006116bd82611af3565b6116c78185611af7565b9350836020820285016116d985611aed565b8060005b858110156116a557848403895281516116f6858261161d565b945061170183611aed565b60209a909a01999250506001016116dd565b600061171e82611af3565b6117288185611af7565b93508360208202850161173a85611aed565b8060005b858110156116a557848403895281516117578582611629565b945061176283611aed565b60209a909a019992505060010161173e565b61163e81611b0b565b600061178882611af3565b6117928185611af7565b93506117a2818560208601611b28565b6117ab81611b58565b9093019392505050565b60006117c2601b83611af7565b7f596f75206861766520616c726561647920726567697374657265640000000000815260200192915050565b60006117fb602f83611af7565b7f596f75206e65656420746f206265206120646f63746f7220746f20676574206181526e6c6c206170706f696e746d656e747360881b602082015260400192915050565b600061184c601983611af7565b7f446f63746f7220616c7265616479207265676973746572656400000000000000815260200192915050565b8051600090608084019061188c8582611a13565b50602083015184820360208601526118a4828261177d565b915050604083015184820360408601526118be828261177d565b915050606083015184820360608601526118d88282611986565b95945050505050565b805160009060a08401906118f58582611a13565b5060208301516119086020860182611635565b5060408301518482036040860152611920828261177d565b9150506060830151848203606086015261193a828261177d565b915050608083015184820360808601526118d8828261177d565b805160408084526000919084019061196c828261177d565b915050602083015184820360208601526118d8828261177d565b805160009060c084019061199a8582611a13565b5060208301516119ad6020860182611635565b50604083015184820360408601526119c5828261177d565b915050606083015184820360608601526119df828261177d565b915050608083015184820360808601526119f9828261177d565b91505060a083015184820360a08601526118d8828261177d565b61163e8161020a565b602080825281016116168184611644565b6020808252810161161681846116b2565b602080825281016116168184611713565b602081016113ac8284611774565b60208082528101611616818461177d565b602080825281016113ac816117b5565b602080825281016113ac816117ee565b602080825281016113ac8161183f565b60405181810167ffffffffffffffff81118282101715611abd57600080fd5b604052919050565b600067ffffffffffffffff821115611adc57600080fd5b506020601f91909101601f19160190565b60200190565b5190565b90815260200190565b60006113ac82611b10565b151590565b6001600160a01b031690565b82818337506000910152565b60005b83811015611b43578181015183820152602001611b2b565b83811115611b52576000848401525b50505050565b601f01601f191690565b611b6b81611b00565b8114611b7657600080fd5b5056fea365627a7a7231582066f17709d0f8bde13278bc5dc81286774aacf995369ec0ca383adf06c8c408046c6578706572696d656e74616cf564736f6c63430005100040",
  "source": "// SPDX-License-Identifier: MIT\r\npragma experimental ABIEncoderV2;\r\n\r\n pragma solidity <0.9.0;\r\ncontract HRM{\r\n    struct Patient\r\n    {\r\n        uint _id;\r\n        address _address;\r\n        string _name;\r\n        string _DOB;\r\n        string _gender;\r\n        string _email;\r\n    }\r\n\r\n    struct Doctor\r\n    {\r\n        uint _id;\r\n        address _address;\r\n        string _name;\r\n        string _speciality;\r\n        string _email;\r\n    }\r\n\r\n    struct Document{\r\n        string _name;\r\n        string _CID;\r\n    }\r\n\r\n    struct Appointment{\r\n        uint256 _id;\r\n        string _time;\r\n        string _date;\r\n        Patient _patient;\r\n    }\r\n\r\n    uint256 doctorCount = 0;\r\n    uint256 patientCount = 0;\r\n    Doctor[] allDoctors;\r\n    mapping (address => Doctor) Doctors;\r\n    mapping (address => Patient) Patients;\r\n    mapping (address => Document[]) Documents;\r\n    mapping (address => Appointment[]) Appointments;\r\n\r\n    string authorName = \"TEJAS\";\r\n\r\n    function getName()public view returns(string memory ) {\r\n        return authorName;\r\n    }\r\n    modifier isADoctor()\r\n    {\r\n        require(Doctors[msg.sender]._address!=address(0),\"You need to be a doctor to get all appointments\");\r\n        _;\r\n    }\r\n\r\n    function CheckIfDoctor() public view returns(bool){\r\n        if(Doctors[msg.sender]._address == address(0))\r\n        {\r\n            return false;\r\n        }\r\n        else\r\n        {\r\n            return true;\r\n        }\r\n    }\r\n\r\n    function CheckIfPatient() public view returns(bool){\r\n        if(Patients[msg.sender]._address == address(0))\r\n        {\r\n            return false;\r\n        }\r\n        else\r\n        {\r\n            return true;\r\n        }\r\n    }\r\n\r\n    function BookAppointment(address doctorAddress,string memory time,string memory date) public\r\n    {\r\n        Appointment memory newAppointment = Appointment({\r\n            _id: (Appointments[doctorAddress].length > 0) ? Appointments[doctorAddress].length : 0 ,\r\n            _time:time,\r\n            _date:date,\r\n            _patient: Patients[msg.sender]\r\n        });\r\n        Appointments[doctorAddress].push(newAppointment);\r\n    }\r\n\r\n    function GetAllAppointments() public isADoctor view returns (Appointment[] memory)\r\n    {\r\n        return Appointments[msg.sender];\r\n    }\r\n    function UploadDocument(string memory name,string memory CID) public {\r\n        Document memory newDoc = Document({\r\n            _name: name,\r\n            _CID: CID\r\n        }); \r\n        Documents[msg.sender].push(newDoc);\r\n    }\r\n\r\n    function GetAllDocuments(address patientAddress)public view returns (Document[] memory)\r\n    {\r\n        return Documents[patientAddress];\r\n    }\r\n\r\n    function RegisterAsDoctor(string memory name,string  memory speciality, string memory email) public {\r\n         require(Doctors[msg.sender]._address == address(0), \"Doctor already registered\");\r\n        Doctor memory newDoctor = Doctor({\r\n            _id : doctorCount,\r\n            _address : msg.sender,\r\n            _name : name,\r\n            _speciality: speciality,\r\n            _email : email\r\n        });\r\n        Doctors[msg.sender] = newDoctor;\r\n        allDoctors.push(newDoctor);\r\n        doctorCount++;\r\n    }\r\n\r\n    function RegisterAsPatient(string memory name, string memory DOB, string memory gender, string memory email) public \r\n    {\r\n        require(Patients[msg.sender]._address == address(0),\"You have already registered\");\r\n        Patient memory newPatient = Patient({\r\n            _id: patientCount,\r\n            _address: msg.sender,\r\n            _name: name,\r\n            _DOB : DOB,\r\n            _gender:gender,\r\n            _email:email\r\n        });\r\n        Patients[msg.sender] = newPatient;\r\n        patientCount++;\r\n    }\r\n\r\n    function GetAllDoctors() public view returns (Doctor[] memory)\r\n    {\r\n        return allDoctors;\r\n    }\r\n}\r\n\r\n",
  "sourcePath": "D:\\Projects\\express-react\\client\\src\\contracts\\HRM.sol",
  "compiler": {
    "name": "solc",
    "version": "0.5.16+commit.9c3226ce.Emscripten.clang"
  },
  "schemaVersion": "3.4.16",
  "updatedAt": "2024-02-29T02:01:05.321Z",
  "networkType": "ethereum",
  "devdoc": {
    "methods": {}
  },
  "userdoc": {
    "methods": {}
  }
}